:100000000C942A000C9434000C9434000C943400AA
:100010000C9434000C9434000C9434000C94340090
:100020000C9434000C9434000C9434000C94340080
:100030000C9434000C9434000C9434000C94340070
:100040000C9434000C9434000C9434000C94340060
:100050000C94340011241FBECFE5D8E0DEBFCDBF25
:100060000E9473010C9486010C940000823049F0C8
:1000700030F4811549F041E081E00C947F00833039
:1000800039F441E00C947F0041E080E00C947F0063
:100090000895823049F030F4811549F041E081E063
:1000A0000C94CD00833039F441E00C94CD0041E054
:1000B00080E00C94CD000895823049F030F4811531
:1000C00049F040E081E00C94CD00833039F440E009
:1000D0000C94CD0040E080E00C94CD000895823077
:1000E00041F028F4811539F081E00C9454018330FB
:1000F00029F40C94540180E00C9454010895843048
:10010000C0F46830B0F44130A9F098F421E001C0A7
:10011000220F6A95EAF72095823039F1833031F069
:10012000813039F18AB382238ABB089581B3822357
:1001300081BB089521E001C0220F6A95EAF7823061
:1001400061F0833031F0813061F08AB3822B8ABB59
:10015000089581B3822B81BB089584B3822B84BB25
:10016000089587B3822B87BB089584B3822384BB11
:10017000089587B3822387BB0895823049F020F425
:10018000811541F067BB0895833031F461BB089558
:1001900064BB08956ABB089508958430C0F4683044
:1001A000B0F44130A9F098F421E001C0220F6A9523
:1001B000EAF720958230F9F0833031F08130F9F0A0
:1001C0008BB382238BBB089582B3822382BB0895B5
:1001D00021E001C0220F6A95EAF78230A1F0833056
:1001E00031F08130A1F08BB3822B8BBB089582B3A9
:1001F000822B82BB089585B3822385BB089588B383
:10020000822388BB089585B3822B85BB089588B36C
:10021000822B88BB0895823049F020F4811541F08B
:1002200068BB0895833031F462BB089565BB0895BF
:100230006BBB0895089541155105A1F0843090F4E9
:10024000683080F4823099F0833079F0813059F44D
:1002500086B390E002C0959587956A95E2F7817024
:10026000FA018083089589B3F4CF80B3F2CF83B3CA
:10027000F0CF6115710571F0823091F030F4811585
:1002800059F086B3FB0180830895833021F480B355
:10029000FB0180830895089589B3FB01808308954D
:1002A00083B3FB01808308958430A0F4683090F418
:1002B00021E001C0220F6A95EAF7823061F08330B5
:1002C00031F0813061F08BB382278BBB089582B30C
:1002D000822782BB089585B3822785BB089588B3A2
:1002E000822788BB089541E060E080E00E947F00A3
:1002F00060E080E00E9454012FE788E391E0215004
:1003000080409040E1F700C00000F2CFF894FFCFAA
:00000001FF
