:100000000C942A000C9433050C945C050C94850523
:100010000C9447000C9447000C9447000C94470044
:100020000C9447000C9447000C9447000C94470034
:100030000C9447000C9447000C9447000C94470024
:100040000C9447000C9447000C9447000C94470014
:100050000C94470011241FBECFE5D4E0DEBFCDBF16
:1000600010E0A0E6B0E0E6E7FCE002C005900D92EB
:10007000A837B107D9F720E0A8E7B0E001C01D928A
:10008000AF37B207E1F70E94B6050C9439060C941D
:10009000000041E064E080E00C94A70341E064E0EC
:1000A00080E00C94F50340E064E080E00C94F503FC
:1000B0009370E199FECF9FBB8EBB6DBB9FB78FB78F
:1000C0008F778FBFE29AE19A9FBF089561157105FE
:1000D00049F09370E199FECF9FBB8EBBE09A8DB340
:1000E000FB0180830895EF92FF920F931F93CF93AC
:1000F000DF9361157105A9F04115510591F07B0160
:10010000E40EF51EEB018C0101501109061B170BC3
:100110006991C8018C0F9D1F0E945800CE15DF0504
:10012000B9F7DF91CF911F910F91FF90EF90089554
:100130009C0161157105C1F041155105A9F0FB0144
:10014000460F571F309751F0E199FECF832F90E073
:1001500083708FBB2EBBE09A8DB3808331962F5F67
:100160003F4FE417F50771F7089540E064E082E03F
:100170000E94A70340E065E082E00E94A70340E000
:1001800066E082E00E94A70340E067E082E00E9410
:10019000A70341E064E082E00E94F50341E065E0EE
:1001A00082E00E94F50341E066E082E00E94F503F0
:1001B00041E067E082E00E94F50341E060E082E018
:1001C0000E94A70341E061E082E00E94A70341E0B2
:1001D00062E082E00E94A70341E063E082E00E94C7
:1001E000A70341E060E082E00E94F50341E061E0A6
:1001F00082E00E94F50341E062E082E00E94F503A4
:1002000041E063E082E00C94F503FF920F931F93AB
:10021000CF93DF930F92CDB7DEB7F12C40E06F2D77
:1002200082E00E94F50310E004E0010FAE014F5F91
:100230005F4F602F82E00E94430489818115A1F005
:100240001F5F143089F741E06F2D82E00E94F503B3
:10025000F39484E0F812E2CF8FEF0F90DF91CF910B
:100260001F910F91FF900895AE014F5F5F4F602F78
:1002700082E00E94430489818115B1F38F2D90E0C3
:10028000880F991F880F991F805A9F4FFC01E10F1B
:10029000F11D80810F90DF91CF911F910F91FF9001
:1002A0000895CF93DF930F92CDB7DEB7898341E0F6
:1002B00060E080E00E94F50340E061E080E00E94A1
:1002C000F503698181E00E94330441E062E080E04F
:1002D0000E94F5038FEC97E00197F1F700C0000052
:1002E00040E062E080E00F90DF91CF910C94F50345
:1002F000CF93DF930F92CDB7DEB7898340E060E004
:1003000080E00E94F50340E061E080E00E94F50398
:10031000698181E00E94330441E062E080E00E9454
:10032000F5038FEC97E00197F1F700C0000040E083
:1003300062E080E00F90DF91CF910C94F503613083
:1003400009F008950C945101613009F008950C945E
:100350007801813009F0089541E060E080E00E947A
:10036000A70341E061E080E00E94A70341E062E072
:1003700080E00E94A7036FEF81E00E94E5038FE217
:1003800092EF0197F1F700C0000088E30E94780126
:1003900095E89A95F1F700008CE00E94780185E8D5
:1003A0008A95F1F7000081E00E94780187E09CE0E7
:1003B0000197F1F700C0000086E00E9478018FEC01
:1003C00097E00197F1F700C0000008950F931F9385
:1003D000CF938C01009771F0FC018081811551F061
:1003E000C0E0613059F0CF5FF801EC0FF11D808162
:1003F0008111F7CFCF911F910F9108950E94510164
:10040000CF5FF801EC0FF11D80818111F7CFF2CFA2
:10041000813048F029F480E4860F80680C947801DC
:1004200080E80C947801862F80680C947801CF9234
:10043000DF92EF92FF920F931F93CF93DF9300D041
:1004400000D00F92CDB7DEB79C01892B09F455C0BF
:1004500040E07DECECECDE2EC72E922F92959F7043
:10046000822F8F70890F932F9F70890F932F9295F2
:100470009F70890F879F912D1124592F569556955E
:100480009C77950F891B8901081B11090C9DD001D0
:100490000D9DB00D1C9DB00D1124A0FD8B5F8E0134
:1004A0000F5F1F4F040F111D805DF8018083C9018C
:1004B0009D0136952795142F4F5F0A9770F617FD0B
:1004C0000EC082E0E82EF12CEC0EFD1EE10EF11CB8
:1004D000F1E0EF1AF108613011F11150C8F70F90F7
:1004E0000F900F900F900F90DF91CF911F910F9170
:1004F000FF90EF90DF90CF900895613081F780E317
:100500000F900F900F900F900F90DF91CF911F9150
:100510000F91FF90EF90DF90CF900C945101F70175
:10052000808103C0F70182917F010E945101115027
:10053000C8F7D5CF86E00C949C0386E00E949C030C
:100540009C01A4E6B0E00E940806A92F982F872FEF
:10055000A69597958795A695979587950895823046
:1005600049F030F4811549F041E081E00C94A70393
:10057000833039F441E00C94A70341E080E00C940F
:10058000A7030895823049F030F4811549F041E025
:1005900081E00C94F503833039F441E00C94F503C9
:1005A00041E080E00C94F5030895823049F030F486
:1005B000811549F040E081E00C94F503833039F473
:1005C00040E00C94F50340E080E00C94F5030895BE
:1005D000823041F028F4811539F081E00C947C04DC
:1005E000833029F40C947C0480E00C947C040895FE
:1005F00085E00E949C039C01A8E8B3E10E940806E4
:10060000672F782F892F90E0869577956795869547
:10061000779567952AE030E040E050E00E941706A9
:10062000822F0895823049F030F4811549F061E05D
:1006300081E00C94E503833039F461E00C94E50328
:1006400061E080E00C94E5030895823041F028F4E5
:10065000811539F081E00C943304833029F40C9433
:10066000330480E00C9433040895823041F028F480
:10067000811539F081E00C943304833029F40C9413
:10068000330480E00C943304089580917800813025
:1006900010F049F0089566E082E00E94C20281E015
:1006A00080937800089566E082E00E94D50210925F
:1006B000780008958130B8F43F983E986130D0F4C6
:1006C0003D984230D9F04430F1F0483041F14031AA
:1006D00011F1403249F1403459F14038B9F4329ABD
:1006E000319A309A13C0A1F0823041F73F9A3E9A76
:1006F000613030F331F73D9A423029F73298319822
:100700003098379A08953298319A3098379A0895E8
:100710003F983E9AD3CF329A31983098F7CF32989B
:10072000319A309A379A0895329A3198309AEECFAA
:10073000329A319A3098EACF97B1907E892B87B957
:10074000369A86B184B125B1349A922F08958430B7
:10075000C0F46830B0F44130A9F098F421E001C051
:10076000220F6A95EAF72095823039F1833031F013
:10077000813039F18AB382238ABB089581B3822301
:1007800081BB089521E001C0220F6A95EAF782300B
:1007900061F0833031F0813061F08AB3822B8ABB03
:1007A000089581B3822B81BB089584B3822B84BBCF
:1007B000089587B3822B87BB089584B3822384BBBB
:1007C000089587B3822387BB0895823049F020F4CF
:1007D000811541F067BB0895833031F461BB089502
:1007E00064BB08956ABB089508958430C0F46830EE
:1007F000B0F44130A9F098F421E001C0220F6A95CD
:10080000EAF720958230F9F0833031F08130F9F049
:100810008BB382238BBB089582B3822382BB08955E
:1008200021E001C0220F6A95EAF78230A1F08330FF
:1008300031F08130A1F08BB3822B8BBB089582B352
:10084000822B82BB089585B3822385BB089588B32C
:10085000822388BB089585B3822B85BB089588B316
:10086000822B88BB0895823049F020F4811541F035
:1008700068BB0895833031F462BB089565BB089569
:100880006BBB0895089541155105A1F0843090F493
:10089000683080F4823099F0833079F0813059F4F7
:1008A00086B390E002C0959587956A95E2F78170CE
:1008B000FA018083089589B3F4CF80B3F2CF83B374
:1008C000F0CF6115710571F0823091F030F481152F
:1008D00059F086B3FB0180830895833021F480B3FF
:1008E000FB0180830895089589B3FB0180830895F7
:1008F00083B3FB01808308958430A0F4683090F4C2
:1009000021E001C0220F6A95EAF7823061F083305E
:1009100031F0813061F08BB382278BBB089582B3B5
:10092000822782BB089585B3822785BB089588B34B
:10093000822788BB08958330B1F0843019F0853068
:1009400009F10895643069F1653009F443C06630F7
:1009500009F447C06730A9F785B7846085BF85B7BC
:10096000886085BF0895643019F1653099F066306C
:1009700031F1673031F785B7816085BF85B7826017
:1009800085BF0895663011F16730D9F684B7806469
:1009900084BF089585B7816085BF85B78D7F85BF8A
:1009A000089585B78B7F85BF85B7877F85BF0895FD
:1009B00085B78E7F85BF85B78D7F85BF089585B745
:1009C0008E7F85BF85B7826085BF089584B78F7B92
:1009D00084BF089585B7846085BF85B7877F85BF4D
:1009E000089585B78B7F85BF85B7886085BF0895DB
:1009F000833049F0843019F0853049F008958BB781
:100A000080688BBF08958BB780648BBF08958BB7C8
:100A100080628BBF0895833049F0843019F08530AF
:100A200049F008958BB78F778BBF08958BB78F7B75
:100A30008BBF08958BB78F7D8BBF0895009721F0F2
:100A400080937D0090937E000895009721F080931D
:100A50007B0090937C000895009721F080937900AB
:100A600090937A0008951F920F920FB60F9211245F
:100A70002F933F934F935F936F937F938F939F93A6
:100A8000AF93BF93EF93FF93E0917D00F0917E00D1
:100A9000309709F00995FF91EF91BF91AF919F9128
:100AA0008F917F916F915F914F913F912F910F9017
:100AB0000FBE0F901F9018951F920F920FB60F92B6
:100AC00011242F933F934F935F936F937F938F9353
:100AD0009F93AF93BF93EF93FF93E0917B00F091CF
:100AE0007C00309709F00995FF91EF91BF91AF918C
:100AF0009F918F917F916F915F914F913F912F9136
:100B00000F900FBE0F901F9018951F920F920FB667
:100B10000F9211242F933F934F935F936F937F9383
:100B20008F939F93AF93BF93EF93FF93E0917900DF
:100B3000F0917A00309709F00995FF91EF91BF91FC
:100B4000AF919F918F917F916F915F914F913F9165
:100B50002F910F900FBE0F901F9018958FB7806840
:100B60008FBF08958FB78F778FBF089541E060E002
:100B700080E00E94A70340E460E081E00E945A0305
:100B800081E00E94A90140E065E080E00E94F50359
:100B900040E062E083E00E94A70361E082E00E94FF
:100BA000AF0266E082E00E94AF0283E090E00E9424
:100BB000AE0567E083E00E949B0485E493E00E9419
:100BC0001E0583E00E94F8040E94F802C82FD0E0BE
:100BD00061E080E00E94080261E080E790E00E940E
:100BE000E60161E0CE010E9417022FE788E391E061
:100BF000215080409040E1F700C0000061E082E0B9
:100C0000A89718F00E94C202DFCF0E94D502DCCF65
:100C1000A29FB001B39FC001A39F700D811D11243D
:100C2000911DB29F700D811D1124911D0895A1E2A7
:100C30001A2EAA1BBB1BFD010DC0AA1FBB1FEE1F56
:100C4000FF1FA217B307E407F50720F0A21BB30BA1
:100C5000E40BF50B661F771F881F991F1A9469F71D
:100C600060957095809590959B01AC01BD01CF0179
:060C70000895F894FFCF87
:100C76003738392F3435362A3132332DFE303D2B75
:080C860054454D503A200000D6
:00000001FF
