:100000000C942A000C9447000C9447000C94470071
:100010000C9447000C9447000C9447000C94470044
:100020000C9447000C9447000C9447000C94470034
:100030000C9447000C9417030C944C030C94750318
:100040000C9447000C9447000C9447000C94470014
:100050000C94470011241FBECFE5D8E0DEBFCDBF12
:1000600010E0A0E6B0E0E8EBF8E002C005900D92E9
:10007000A238B107D9F720E0A2E8B0E001C01D9294
:10008000A339B207E1F70E949E030C9453040C9429
:100090000000EF92FF920F931F93CF93DF93CDB7A2
:1000A000DEB761970FB6F894DEBF0FBECDBF4C87A9
:1000B0005D876E877F87342F452F562F672FE12C62
:1000C000F12C03E010E020E070E082E00E94A50146
:1000D00061960FB6F894DEBF0FBECDBFDF91CF9112
:1000E0001F910F91FF90EF90089590E00C9467029C
:1000F0000C9487020C94CF020E94750208950C9410
:100100009D02CF93DF93CDB7DEB7A2970FB6F894D9
:10011000DEBF0FBECDBF69A37AA30E94870287E727
:1001200090E00E9487026AE0CE0101960E949D0243
:1001300069A17AA1CE0101960E9439049C0181E057
:1001400090E0232B09F080E0A2960FB6F894DEBF72
:100150000FBECDBFDF91CF9108950E9402030C9492
:10016000F6028430C0F46830B0F44130A9F098F45D
:1001700021E001C0220F6A95EAF72095823039F11B
:10018000833031F0813039F18AB382238ABB0895FC
:1001900081B3822381BB089521E001C0220F6A95BB
:1001A000EAF7823061F0833031F0813061F08AB358
:1001B000822B8ABB089581B3822B81BB089584B3BF
:1001C000822B84BB089587B3822B87BB089584B3A9
:1001D000822384BB089587B3822387BB089582302E
:1001E00049F020F4811541F067BB0895833031F464
:1001F00061BB089564BB08956ABB08950895843077
:10020000C0F46830B0F44130A9F098F421E001C0A6
:10021000220F6A95EAF720958230F9F0833031F0A9
:100220008130F9F08BB382238BBB089582B3822394
:1002300082BB089521E001C0220F6A95EAF782305F
:10024000A1F0833031F08130A1F08BB3822B8BBBD6
:10025000089582B3822B82BB089585B3822385BB28
:10026000089588B3822388BB089585B3822B85BB0C
:10027000089588B3822B88BB0895823049F020F41A
:10028000811541F068BB0895833031F462BB089555
:1002900065BB08956BBB0895089541155105A1F004
:1002A000843090F4683080F4823099F0833079F0B3
:1002B000813059F486B390E002C0959587956A9590
:1002C000E2F78170FA018083089589B3F4CF80B397
:1002D000F2CF83B3F0CF6115710571F0823091F0E8
:1002E00030F4811559F086B3FB0180830895833083
:1002F00021F480B3FB0180830895089589B3FB0145
:100300008083089583B3FB01808308958430A0F433
:10031000683090F421E001C0220F6A95EAF782303C
:1003200061F0833031F0813061F08BB382278BBB79
:10033000089582B3822782BB089585B3822785BB47
:10034000089588B3822788BB0895EF92FF920F9398
:100350001F93CF93DF93CDB7DEB72B970FB6F894EB
:10036000DEBF0FBECDBFBE2DE982AF2DFA82902F2A
:100370000B83F12F1C83E22F2D833E834F835887FD
:100380006987172F7A87082F8B874E815F81688551
:100390007985E0928200F092830090938400F0933C
:1003A00085002093860040938700509388006093D7
:1003B000890070938A0010938B0080938C0080ECEE
:1003C000B13009F080E8A13009F47FC0E11531F0C7
:1003D000E23009F470C0E33009F46FC09930B0F432
:1003E000990F892B80BDF130B9F030F180E090E0B9
:1003F00099B980BD57985698559811501730E0F527
:10040000E12FF0E0EB5AFB4F0C94330459F7866070
:10041000529A80BDF13049F7599A440F551F661F13
:10042000771F440F551F661F771F9A01AB01220FDC
:10043000331F441F551F13C059989A01AB01220F57
:10044000331F441F551F220F331F441F551F220FF8
:10045000331F441F551F220F331F441F551F60E0D9
:1004600072E18AE790E00E94110421503109922F35
:10047000832FBECF569A559A013098F4549A5398C8
:100480002B960FB6F894DEBF0FBECDBFDF91CF9194
:100490001F910F91FF90EF900895579A569A01304F
:1004A00068F381F0023061F7549A539AE9CF569A73
:1004B000559A579AE1CF806291CF80638FCF579A38
:1004C000559ADACF539A5498DBCF88607FCF9C013E
:1004D0008BB180918400893011F02CB90895509827
:1004E00030FFFBCF509A2CB908958BB180918400D6
:1004F000893029F080E090E02CB1822B0895882784
:1005000051998395880F990B2CB1822B0895DC01AA
:10051000892B91F09C91911579F020E080918400D5
:100520003BB1893009F450989CB92F5FFD01E20F6F
:10053000F11D90819111F4CF0895DC01892BC1F058
:100540008BB190918400993021F120E030E08CB1A2
:10055000282B392B2C93621751F0FD0131968BB16A
:10056000993049F08CB1DF0181936813F8CF1C9268
:10057000089531968BB18AB12CB1DF0186958170D7
:10058000880F991F822B932B80836813F2CF1C92C4
:100590000895222751992395220F331FD8CF611533
:1005A000710571F0FC01680F791F909184008191B1
:1005B0002BB1993009F450988CB9E617F707B9F7C1
:1005C00008959C0180918400893011F02CB9089520
:1005D000509830FFFBCF509A2CB90895549A089543
:1005E000539A08955498089553980895579A0895E2
:1005F000569A0895559A08955798089556980895CB
:1006000055980895009721F080939100909392005F
:100610000895009721F080938F00909390000895A3
:10062000009721F080938D0090938E0008951F9283
:100630000F920FB60F9211242F933F934F935F9316
:100640006F937F938F939F93AF93BF93EF93FF939A
:10065000E0919100F0919200309741F080918400F8
:1006600090E08930A1F02CB1822F0995FF91EF9194
:10067000BF91AF919F918F917F916F915F914F91BA
:100680003F912F910F900FBE0F901F9018958827C4
:1006900051998395982FE7CF1F920F920FB60F9223
:1006A00011242F933F934F935F936F937F938F9377
:1006B0009F93AF93BF93EF93FF93E0918D00F091E1
:1006C0008E00309709F00995FF91EF91BF91AF919E
:1006D0009F918F917F916F915F914F913F912F915A
:1006E0000F900FBE0F901F9018951F920F920FB68C
:1006F0000F9211242F933F934F935F936F937F93A8
:100700008F939F93AF93BF93EF93FF93E0918F00ED
:10071000F0919000309709F00995FF91EF91BF910A
:10072000AF919F918F917F916F915F914F913F9189
:100730002F910F900FBE0F901F90189500D000D0F2
:1007400000D00F92CDB7DEB780E895E289839A8317
:100750001B821C821D821E821F8241E060E080E0BD
:100760000E94B10040E060E080E00E94FF0040E0B5
:1007700061E080E00E94B10041E061E080E00E9421
:10078000FF0049815A816B817C818D819E810E940D
:10079000490080E690E00E94780001E0AE01495FE8
:1007A0005F4F61E080E00E944D011F81111110C078
:1007B000013061F100E0F2CFAE01495F5F4F61E0CF
:1007C00080E00E944D018F81012F811599F3182F30
:1007D000113091F7011579F0AE01495F5F4F61E08B
:1007E00080E00E944D011F81111581F001E0113060
:1007F00019F70111F1CF40E060E080E00E94FF00B6
:100800008EE790E00E9478000F81C8CF41E060E061
:1008100080E00E94FF008AE790E00E9478000F814C
:10082000BDCFA1E21A2EAA1BBB1BFD010DC0AA1F42
:10083000BB1FEE1FFF1FA217B307E407F50720F049
:10084000A21BB30BE40BF50B661F771F881F991FC4
:100850001A9469F760957095809590959B01AC010D
:10086000BD01CF010895EE0FFF1F0590F491E02D1B
:100870000994FB0151915523A9F0BF01DC014D9171
:1008800045174111E1F759F4CD010190002049F0DD
:100890004D9140154111C9F3FB014111EFCF81E0AA
:1008A00090E001970895F894FFCF59024E023B0261
:0808B0004D025F023A025702FB
:1008B800426C7565746F6F7468204D6F64756C65F4
:1008C800205265616479210D0A00310D0A00300D4E
:0208D8000A0014
:00000001FF
